{
  "contractName": "SimpleToken",
  "abi": [
    {
      "inputs": [],
      "stateMutability": "nonpayable",
      "type": "constructor"
    },
    {
      "inputs": [
        {
          "internalType": "address",
          "name": "account",
          "type": "address"
        }
      ],
      "name": "getBalance",
      "outputs": [
        {
          "internalType": "uint256",
          "name": "",
          "type": "uint256"
        }
      ],
      "stateMutability": "view",
      "type": "function"
    },
    {
      "inputs": [
        {
          "internalType": "address",
          "name": "to",
          "type": "address"
        },
        {
          "internalType": "uint256",
          "name": "amount",
          "type": "uint256"
        }
      ],
      "name": "transfer",
      "outputs": [],
      "stateMutability": "nonpayable",
      "type": "function"
    }
  ],
  "bytecode": "0x608060405234801561000f575f80fd5b50620f42405f803373ffffffffffffffffffffffffffffffffffffffff1673ffffffffffffffffffffffffffffffffffffffff1681526020019081526020015f20819055506103a4806100615f395ff3fe608060405234801561000f575f80fd5b5060043610610034575f3560e01c8063a9059cbb14610038578063f8b2cb4f14610054575b5f80fd5b610052600480360381019061004d919061024a565b610084565b005b61006e60048036038101906100699190610288565b610174565b60405161007b91906102c2565b60405180910390f35b805f803373ffffffffffffffffffffffffffffffffffffffff1673ffffffffffffffffffffffffffffffffffffffff1681526020019081526020015f205410156100cc575f80fd5b805f803373ffffffffffffffffffffffffffffffffffffffff1673ffffffffffffffffffffffffffffffffffffffff1681526020019081526020015f205f8282546101179190610308565b92505081905550805f808473ffffffffffffffffffffffffffffffffffffffff1673ffffffffffffffffffffffffffffffffffffffff1681526020019081526020015f205f828254610169919061033b565b925050819055505050565b5f805f8373ffffffffffffffffffffffffffffffffffffffff1673ffffffffffffffffffffffffffffffffffffffff1681526020019081526020015f20549050919050565b5f80fd5b5f73ffffffffffffffffffffffffffffffffffffffff82169050919050565b5f6101e6826101bd565b9050919050565b6101f6816101dc565b8114610200575f80fd5b50565b5f81359050610211816101ed565b92915050565b5f819050919050565b61022981610217565b8114610233575f80fd5b50565b5f8135905061024481610220565b92915050565b5f80604083850312156102605761025f6101b9565b5b5f61026d85828601610203565b925050602061027e85828601610236565b9150509250929050565b5f6020828403121561029d5761029c6101b9565b5b5f6102aa84828501610203565b91505092915050565b6102bc81610217565b82525050565b5f6020820190506102d55f8301846102b3565b92915050565b7f4e487b71000000000000000000000000000000000000000000000000000000005f52601160045260245ffd5b5f61031282610217565b915061031d83610217565b9250828203905081811115610335576103346102db565b5b92915050565b5f61034582610217565b915061035083610217565b9250828201905080821115610368576103676102db565b5b9291505056fea26469706673582212204de4e9f9d2745729ed5d2940f517611766821ea02422b8a3506249ae552ba25564736f6c63430008150033",
  "immutableReferences": {},
  "source": "// SPDX-License-Identifier: MIT\npragma solidity ^0.8.0;\n\ncontract SimpleToken {\n\n    mapping(address => uint) private _balances;\n\n    constructor() {\n        _balances[msg.sender] = 1000000;\n    }\n\n    function getBalance(address account) public view returns (uint) {\n        return _balances[account];\n    }\n\n    function transfer(address to, uint amount) public {\n        require(_balances[msg.sender] >= amount);\n\n        _balances[msg.sender] -= amount;\n        _balances[to] += amount;\n    }\n}\n\n",
  "sourcePath": "/app_svc/truffle2/contracts/SimpleToken.sol",
  "compiler": {
    "name": "solc",
    "version": "0.8.21+commit.d9974bed.Emscripten.clang"
  },
  "schemaVersion": "3.4.14",
  "updatedAt": "2023-08-04T09:15:45.968Z",
  "devdoc": {
    "kind": "dev",
    "methods": {},
    "version": 1
  },
  "userdoc": {
    "kind": "user",
    "methods": {},
    "version": 1
  }
}